:020000040800F2
:10000000380B002005010008AD350008E730000876
:10001000A9350008810A00085146000800000000C8
:10002000000000000000000000000000D5350008BE
:10003000FD0C000800000000AF350008D7350008AF
:100040001F0100081F0100081F0100081F01000810
:100050001F0100081F0100081F0100081F01000800
:100060001F0100081F0100081F0100081F010008F0
:100070001F0100081F0100081F0100081F010008E0
:100080001F0100081F0100081F0100081F010008D0
:100090001F0100081F0100081F0100081F010008C0
:1000A0001F0100081F0100081F0100081F010008B0
:1000B000BD3600081F0100081F0100081F010008CD
:1000C0001F0100081F0100081F0100081F01000890
:1000D0001F010008894500081F0100081F010008D2
:1000E0001F0100081F0100081F010008DFF810D0E1
:1000F00000F016FC00480047C5480008AFF3008038
:10010000380B00200648804706480047FEE7FEE718
:10011000FEE7FEE7FEE7FEE7FEE7FEE7FEE7FEE7B7
:1001200065360008ED000008202A04DB203A21FA99
:1001300002F00021704721FA02F3D040C2F1200200
:100140009140084319467047D2B201E000F8012BF4
:10015000491EFBD270470022F6E710B513460A4647
:1001600004461946FFF7F0FF204610BDF0B480EAC0
:100170000102D40F4200B2EB410F02D20246084600
:1001800011464A0042D0C30DDDB2C1F3C752AD1AC9
:10019000202D35DAC1F3160141F4000204B15242B8
:1001A000C5F1200602FA06F12A411044B3EBD05FF4
:1001B00023D0C4B1012DA0EBC35009DCF0BC4FF03B
:1001C000004202EAC352DBB200F5000000F01CBBA3
:1001D000400000F1807000EBC350A0F1807040EA55
:1001E000D170490009E0490841EAC071A0EBC35051
:1001F00000F50000400800EBC350F0BC00F0FBBA73
:100200006142012202EB4101001BF6E7F0BC70479E
:1002100081F00041AAE780F00040A7E780EA0102F0
:1002200010B502F00043400022D04A001FD0010E5A
:1002300001EB1261C0F35600C2F3560240F4000015
:1002400042F40002A0FB022000047F39140400D015
:10025000401C50EA124001D44000491EC2B20C06B4
:1002600004EBD010401C4008802A02D003E000209C
:1002700010BD20F00100002900DA0020184310BD55
:1002800030B480EA010202F0004530F0004221F073
:10029000004013D090B1C30DD40DC2F31601C0F3CA
:1002A0001600E41A41F4000140F400027D3491424A
:1002B00001D3641C00E04900002C02DA30BC0020AD
:1002C00070474FF400000023914201D3891A034381
:1002D00040084FEA4101F7D151B1914202D14FF0AC
:1002E000004105E002D24FF0010101E06FF0010191
:1002F00003EBC450284430BC00F07DBA2DE9FE4F1A
:10030000804681EA0300C00F0C46009021F00041B6
:1003100023F00045B8EB0200A94105D24046214632
:1003200090461C460B46024623F00040104347D03F
:10033000270DC7F30A00C3F30A510290401A019037
:1003400040286BDAC3F3130040F4801B00989246F8
:1003500020B10023D2EB030A63EB0B0B0198594643
:10036000C0F14002504600F025FA06460D465046C0
:100370005946019A00F02DFA10EB08006141002463
:1003800087EA115284EAE7731A4340D0009A62B3B5
:10039000019A012A4FEA075215DC001B61EB0201AA
:1003A0004FF0004202EA0752CDE90042001C41F53D
:1003B000801132462B4600F064FA03B0BDE8F08F9E
:1003C00040462146F9E7001B61EB0201001C41F5A4
:1003D000801300185B412018A2F5001747EB0301BA
:1003E00040EAD570B6196D4111E06D084FEA360646
:1003F00045EAC0754FEA0752001B61EB0201001C81
:1004000041F5801149084FEA300000195141324648
:100410002B4603B0BDE8F04F00F024BA009801224B
:1004200040000023D0EB020263EBE073009821460A
:100430004FEAE074B8EB000061EB0401E9E783F0F8
:1004400000435BE781F0004158E72DE9FE4F81EA68
:10045000030404F0004421F0004100944FF0000B2D
:1004600023F0004350EA01045ED052EA03045BD05B
:10047000C3F30A54C1F30A552C44A4F2F334019493
:10048000A0FB0254C1F3130141F48011C3F3130321
:1004900043F4801301FB024400FB034E840A970AD5
:1004A00044EA815447EA8357A4FB076802958D0A02
:1004B00005FB07854FEA932C04FB0C542705029D8E
:1004C0004FEA065847EA1637B5EB08056EEB070CFE
:1004D000870E920E47EA811742EA8312A7FB0201B8
:1004E000B6EB0B0164EB00042B0D43EA0C335E18F2
:1004F00044EB1C50DA465146E7FB0201C5F31304F6
:100500004FEA0B3343EA14534FEA0432019C43EAA7
:100510000603A4F10C040294009CCDE900B400F0A1
:10052000B0F903B0BDE8F08F00200146F9E72DE9EE
:10053000F04D81EA030404F0004B21F0004514461D
:100540004FF0000A23F0004150EA050220D054EA9F
:1005500001021DD0C5F30A570246C5F31303C1F3C8
:100560001300C1F30A5640F4801543F48013A7EB3F
:100570000608101BD64608F2FD3873EB050002D3BF
:1005800008F1010801E092185B41B8F1000F03DAAD
:1005900000200146BDE8F08D00204FF48011064692
:1005A00084460EE0171B73EB050705D3121B63EBA4
:1005B000050306434CEA010C49084FEA3000921843
:1005C0005B4150EA0107EDD152EA030012D082EA02
:1005D000040083EA0501084305D0101BAB4106D295
:1005E0000122002306E000224FF0004302E06FF0FA
:1005F000010253101AEB06004CEB085110EB0A00F5
:1006000041EB0B01BDE8F04D00F02CB9C10F80EAC1
:10061000E0700844CA079623002100F0F5B896233D
:100620000022114600F0F0B80EB5C10F80EAE0706C
:100630000844CA07002140F233438DE80E000A4601
:100640000B4600F01EF903B000BD0EB540F2334179
:1006500002910021CDE900110A460B4600F011F984
:1006600003B000BD20F00040C10DC0F3160040F4FF
:1006700000007F2901DA00207047962903DCC1F1D0
:100680009601C840704796398840704770B5C1F3ED
:100690000A5201F000450024C1F3130140F2FF3378
:1006A00041F480119A4201DA002070BD40F23343D8
:1006B0009A42A2F2334203DC5242FFF735FD00E0DA
:1006C00090402C43F1D0404270BDC1F30A5210B5A6
:1006D000C1F3130140F2FF3341F480119A4201DA71
:1006E000002010BD40F233439A42A2F2334203DCB1
:1006F0005242FFF719FD10BD904010BD00F00042BE
:1007000030F000400AD0C10D01F56071C0F3160051
:1007100042EA0151C20840071143704700200146D8
:100720007047000030B5041E71F1000404DB4FF087
:100730000044404264EB0101141E73F1000405DB28
:100740001C464FF00043524263EB0403994208BF3A
:10075000904230BD01F0004330B421F0004150EA36
:10076000010206D00A0DA2F56072C1F31301002A3E
:1007700002DC30BC00207047440F44EAC104C100D1
:10078000E01830BC00EBC25000F035B8002801DBA7
:10079000C0F10040002901DBC1F1004181427047F6
:1007A000002801DBC0F10040002901DBC1F100415C
:1007B00088427047202A04DB203A00FA02F1002028
:1007C00070479140C2F1200320FA03F3194390408F
:1007D0007047202A06DBCB17203A41FA02F043EAA1
:1007E000E07306E041FA02F3D040C2F120029140EA
:1007F0000843194670470029A8BF7047401C4900AC
:1008000008BF20F00100704710B4B0FA80FC00FA75
:100810000CF050EA010404BF10BC704749B1CCF1A0
:10082000200421FA04F411FA0CF118BF012121432C
:100830000843A3EB0C01CB1D4FEA00614FEA1020E7
:1008400042BF002010BC704700EBC3501044002989
:10085000A4BF10BC7047401C490008BF20F0010035
:1008600010BC704710B5141E73F1000408DA401C68
:1008700041F1000192185B411A4301D120F00100BF
:1008800010BD2DE9F04D92469B4611B1B1FA81F2AF
:1008900002E0B0FA80F220329046FFF78BFF044668
:1008A0000F4640EA0A0041EA0B0153465A46084304
:1008B00013D0114653EA010019D0C8F14002504646
:1008C000FFF732FC05460E46504659464246FFF7B2
:1008D00071FF084305D0012004E020463946BDE8F9
:1008E000F08D0020054346EAE0762C4337430A9812
:1008F0006305E40AA0EB08000022FD0A44EA47541D
:100900000A3002D500200146E9E7010510196941C6
:10091000DDE9084500196941BDE8F04DA2E7000096
:10092000064C074D06E0E06840F0010394E807003C
:1009300098471034AC42F6D3FFF7DCFB484A000876
:10094000684A000870B58C1810F8015B15F00703B1
:1009500001D110F8013B2A1106D110F8012B03E058
:1009600010F8016B01F8016B5B1EF9D12B0705D460
:100970000023521E0DD401F8013BFAE710F8013BA9
:10098000CB1A921C03E013F8015B01F8015B521EC5
:10099000F9D5A142D8D3002070BD70B504462068B7
:1009A000816811F0010F24D0816821F0010181607C
:1009B00000F0A8FF05462068806810F0010F18D0ED
:1009C00000F0A0FF401B02280ED92068806810F0BC
:1009D000010F09D0A06A40F01000A062E06A40F068
:1009E0000100E062012070BD2068806810F0010FF6
:1009F000E6D1002070BD0000F8B504460026009640
:100A00002068816811F0010F28D1816841F001014F
:100A10008160194819490068B0FBF1F00090009816
:100A200028B10098401E009000980028F9D100F0ED
:100A300069FF05462068806810F0010F0ED100F0B4
:100A400061FF401B022804D92068806810F0010F64
:100A500006D02068806810F0010FF0D00020F8BDAB
:100A6000A06A40F01000A062E06A40F00100E0627D
:100A700084F824600120F8BD0405002040420F00E6
:100A800000BFFEE710B500241548006820F00F00F5
:100A9000134908600846006840F00800086004E058
:100AA000601CC4B2012003F01BFE0E48006808B1B0
:100AB000C82CF5DBC82C01DB012010BD002404E0AC
:100AC000601CC4B2012003F00BFE0648006808B9A0
:100AD000F02CF5DBF02C01DB0120EEE70020ECE749
:100AE000000C0140008121422DE9F84F00F0C0F8D0
:100AF00000F098F8FFF7C6FFCC2000F0C5F8BE2044
:100B000000F0C2F800F07CF8814600F079F8044665
:100B1000072C07DDE043C4B26FEA090000F0FF09CB
:100B2000002600E001262546280205B205EB090053
:100B300005B22846FFF76AFD0090FFF7DFFD074684
:100B40000022114BFFF781FC8246FFF79FFD05B2A3
:100B50006EB12846FFF768FD07460C4A0C4BFFF7BD
:100B600074FC8246FFF792FD00B2BDE8F88F684240
:100B7000FFF75AFD0746054A054BFFF766FC82461C
:100B8000FFF784FD00B2F0E70000E43F9A999999DD
:100B90009999B93F10B51748006820F00F00154922
:100BA00008600846006840F0030008600020124911
:100BB0000860022003F094FD01201049C1F8800173
:100BC0000C48006820F00F000A49086008460068D9
:100BD00040F0080008600C2003F082FD06488038D1
:100BE000006808B1012400E00024322003F078FD01
:100BF000204610BD000C014080812142008021422E
:100C000070B50026012508E0FFF7C4FF0446E001A7
:100C100040EA6600C6B2681CC5B2082DF4DD304655
:100C200070BD000010B50F48006820F00F000D499E
:100C300008600846006840F00300086000200A4988
:100C4000086040F2EE2003F04BFD012211460548FA
:100C500000F050FE01200549C1F880010F2003F08B
:100C60003FFD10BD000C01408081214200802142E7
:100C700010B5FFF7D7FFFFF705FFCC2000F004F811
:100C8000442000F001F810BD70B504461848006813
:100C900020F00F00164908600846006840F0030085
:100CA0000860012520E004F0010664106EB1002008
:100CB00010490860022003F013FD01200E49C1F81D
:100CC00080013C2003F00CFD0CE000200949086085
:100CD0003C2003F005FD01200749C1F880010220F6
:100CE00003F0FEFC681CC5B2082DDCDD70BD000001
:100CF000000C0140808121420080214270477047F2
:100D00003EB50446009401200190072002906946F8
:100D1000074800F0D3F8064800F006FB42F21071D5
:100D2000034800F045FA024800F05CF980B23EBD8D
:100D3000680500202DE9FC5F80460D46002600274F
:100D4000002429E04046FFF7DBFF07463E44002C25
:100D500017DD3846FFF763FC01902046FFF75FFC84
:100D600083463046FFF75BFC59460090FFF788FA50
:100D700082460199FFF74CFA8146FFF7BFFC0A4A09
:100D800003C20022094B084903C9FFF7CBFC01D27B
:100D900000240026601CC4B2AC42D3DBB6FBF5F0E5
:100DA00080B2BDE8FC9F0000F8040020000059401C
:100DB000F8B504460026009694F8240001280CD0CB
:100DC000012084F824002046FFF7E7FD2046FFF7C6
:100DD00013FE0746380002D06AE00220F8BDA06A80
:100DE00020F4885040F00200A062022000F04AFE89
:100DF00031490968B1FBF0F040000090009828B13B
:100E00000098401E009000980028F9D12068816861
:100E100041F00801816000F075FD0546206880689A
:100E200010F0080F18D000F06DFD401B0A280ED9F5
:100E30002068806810F0080F09D0A06A20F0020036
:100E400040F01000A06284F824600120F8BD206802
:100E5000806810F0080FE6D12068816841F0040135
:100E6000816000F04FFD05462068806810F0040F97
:100E700018D000F047FD401B0A280ED92068806872
:100E800010F0040F09D0A06A20F0020040F010001A
:100E9000A06284F824600120F8BD2068806810F00A
:100EA000040FE6D1A06A20F0020040F00100A06229
:100EB00084F824603846F8BD0405002078B44FF06B
:100EC000000C0024009490F82420012A14D0012260
:100ED00080F824204A681F25072A10D203685E6B19
:100EE000521E02EB8202954026EA05050E6806FABC
:100EF00002F22A435A631FE078BC022070470D2A91
:100F00000DD203681E6BD21F02EB8202954026EAC7
:100F100005050E6806FA02F22A431A630CE003681C
:100F2000DE6A0D3A02EB8202954026EA05050E685C
:100F300006FA02F22A43DA620A6807250A2A0DD362
:100F40000368DE680A3A02EB4202954026EA05058C
:100F50008E6806FA02F22A43DA600BE003681E6923
:100F600002EB4202954026EA05058E6806FA02F277
:100F70002A431A610A68102A01D0112A0BD102688B
:100F8000A2F18043B3F592330AD0816A41F0200187
:100F900081624FF0010C80F8244078BC60467047B5
:100FA000936813F4000FF6D1936843F40003936041
:100FB00009681029EFD10949094A0968B1FBF2F122
:100FC00001EB81014900009100990029E3D00099CB
:100FD000491E009100990029F9D1DCE704050020A1
:100FE00040420F000068C06C704700002DE9F041DE
:100FF000044600270025002C03D0A06A002618B163
:1010000008E00120BDE8F081E66284F82460204613
:1010100000F07CF82046FFF7C0FC0146A06A10F003
:10102000100F00D139B1A06A40F01000A062012178
:101030000846BDE8F081A06A20F4885040F0020024
:10104000A062E2696068237B104347EA43020243DF
:10105000A068B0F5807F08D0012806D0002094F861
:1010600014C0BCF1010F03D00BE04FF48070F6E721
:10107000F3B1A36A43F02003A362E36A43F00103E0
:10108000E3622368D3F804C02CF4694C4CEA0000F6
:10109000586020688368DFF86CC003EA0C031343D0
:1010A0008360A068B0F5807F09D0012807D009E0EF
:1010B000A3695B1E40EA433040F40060E1E7208A08
:1010C000401E05052068C36A23F470032B43C362E6
:1010D000206880680C4B1840904207D1E662A06AF5
:1010E00020F0020040F00100A062A1E7A06A20F019
:1010F000020040F01000A062E06A40F00100E062EF
:10110000012195E7FDF7E1FFFE0E1FFF10B586B048
:101110000446002002900390049005901F49206827
:10112000884239D100BF1E48806940F400701C49D4
:1011300088610846806900F40070019000BF00BF1C
:1011400000BF0846806940F0040088610846806955
:1011500000F00400019000BF00BF00BF0846806996
:1011600040F0080088610846806900F0080001909E
:1011700000BF00BFFF2002900320039002A909488E
:1011800000F0BAFA03200290039002A9064800F08A
:10119000B3FA0648FFF70CFE06B010BD002401406C
:1011A0000010024000080140000C014068050020CA
:1011B0002DE9F84304460D464FF00008CDF80080B5
:1011C00000F0A0FB07462068816811F4807F08D0FA
:1011D000A06A40F02000A06284F824800120BDE8CD
:1011E000F883416811F4807F03D1C16A11F4700F54
:1011F0001FD0022000F046FC48490968B1FBF0F31B
:1012000020680169464A11424FEA62014FEAA11281
:1012100030D1D0F80CC04E111CEA060F2AD1D0F8FC
:1012200010C01CEA010F36D1C068104233D114201F
:1012300034E0006810F0020F50D1B5F1FF3F0AD042
:1012400025B100F05FFBC01BA84204D920680068EC
:1012500010F0020F05D02068006810F0020FECD0EB
:101260003CE0A06A40F00400A06284F824800320DF
:10127000BDE8F883D0F810C01CEA010F02D1C168A4
:10128000114206D0026927490A4206D1C0680842C5
:1012900003D1542002E0292000E0FC2003FB00F6EB
:1012A0000098B0421AD2B5F1FF3F11D025B100F03D
:1012B00029FBC01BA8420BD90098B04208D2A06AF3
:1012C00040F00400A06284F824800320BDE8F88385
:1012D0000098401C00900098B042E4D321686FF061
:1012E00012000860A06A40F40070A0622068806864
:1012F0004FF4602131EA00000DD1207B58B9A06A7B
:1013000020F48070A062A06A10F4805F03D1A06A0C
:1013100040F00100A0620020BDE8F8830405002031
:10132000244992244992240070B5044694F824007C
:1013300001280DD0012084F824002046FFF75CFB33
:1013400002464FF0000C2AB184F824C0104670BD4C
:10135000022070BDA06A20F0010020F4007040F46B
:101360008070A062274B2068274998421AD10D68E7
:1013700015F4702F16D0A56A45F48015A5620D6886
:1013800015F4806F05D0A56A25F4005545F4805505
:10139000A562A56A15F4805F13D0E56A25F00605FD
:1013A000E56210E0A56A25F48015A562456815F48C
:1013B000806FEED0A56A25F4005545F48055A562EE
:1013C000E7E7C4F82CC084F824C06FF0020CC0F822
:1013D00000C02068D0F808C04FF4602434EA0C0C38
:1013E00005D1984208D1096811F4702F04D08168A2
:1013F00041F480118160A9E7816841F4A001816016
:10140000A4E70000002801400424014070B5044610
:10141000002C03D094F8200010B104E0012070BD2E
:10142000204600F0A7F82068016841F00101016042
:1014300000F068FA0546206840684FF0050610F095
:10144000010F11D100F05EFA401B0A2807D9606A2B
:1014500040F40030606284F82060012070BD206894
:10146000406810F0010FEDD02068016821F0020102
:10147000016000F047FA05462068406810F0020F4E
:1014800011D000F03FFA401B0A2807D9606A40F4E7
:101490000030606284F82060012070BD20684068E0
:1014A00010F0020FEDD1207E01283FD020680168A6
:1014B00021F080010160607E01283DD02068016834
:1014C00021F040010160A07E01283BD02068016826
:1014D00021F020010160E07E012839D020680168F8
:1014E00041F010010160207F012837D02068016899
:1014F00021F008010160607F012835D02068016873
:1015000021F004010160E168A06862690843216973
:10151000114308436168491E08432168C8610020DF
:101520006062012084F82000002070BD20680168FE
:1015300041F080010160BEE72068016841F0400190
:101540000160C0E72068016841F020010160C2E746
:101550002068016821F010010160C4E7206801687B
:1015600041F008010160C6E72068016841F004010C
:101570000160C8E710B586B00446002002900390D1
:10158000049005901A49206888422ED100BF19485E
:10159000C06940F000701749C8610846C06900F092
:1015A0000070019000BF00BF00BF0846806940F096
:1015B000040088610846806900F00400019000BFC3
:1015C00000BFC814029000200390049002A90A48AA
:1015D00000F092F84FF48050029002200390032014
:1015E000059002A9044800F087F806B010BD00007D
:1015F00000640040001002400008014002484168B9
:1016000041F0020141607047002004E090F8211091
:101610000022022905D00421816380F820200120C6
:10162000704701680B6823F00E030B6001680B68BC
:1016300023F001030B6090F84030D0F83CC001214A
:1016400001FA03F3CCF8043080F8211080F8202050
:101650001046704710B5002490F82110022903D0DD
:1016600004218163012437E001680A6822F00E0238
:101670000A6001680A6822F001020A60174A0168DC
:10168000914201D101211CE0154A914201D1102162
:1016900017E0144A914201D1891512E0124A914291
:1016A00001D189140DE0114A914202D14FF48031E9
:1016B00007E00F4A914202D14FF4801101E04FF050
:1016C00080710C4A5160012180F82110002180F8BE
:1016D0002010416B01B18847204610BD0800024030
:1016E0001C0002403000024044000240580002400A
:1016F0006C000240000002402DE9F84F4FF0000C52
:1017000000230A68002A7DD0DFF8DC810F27A8F1CA
:10171000040A08F10409AAF1040B012202FA0CF6EA
:101720000A683240B2426ED1DFF8C0E14C68A4EBE7
:101730000E0574452BD00DDC032C34D005DC34B3FE
:10174000012C19D0022C2FD11BE0112C16D0122CF9
:101750002AD119E0B5F5881F19D006DCB5F5803F10
:1017600015D0B5F5801F1FD111E0B5F5001F0ED0C3
:10177000B5F5041F18D10AE0CB6815E0CB681B1D36
:1017800012E0CB6808330FE0CB680C330CE08B68B9
:1017900023B1012B04D00823466105E0042303E0B4
:1017A0000823066100E00023B2F5807F01D20546E0
:1017B00001E000F1040502D24FEA8C0403E0ACF131
:1017C00008044FEA84042E6807FA04FE26EA0E068F
:1017D00003FA04F446EA04042C604C6814F0805FB9
:1017E00079D0434CA56945F00105A561A46904F0D1
:1017F000010400942CF0030404F1804404F58034C7
:10180000A66801E06EE066E04FEA8C754FEA157558
:1018100007FA05FE26EA0E0EA0F18046B6F58436DC
:101820001ED0A0F18046B6F586361BD0A0F18046CA
:10183000B6F5883618D0A0F18046B6F58A3615D0B0
:10184000042606FA05F545EA0E05A5604C6814F471
:10185000801F0DD0D8F800401443C8F800400CE0B9
:101860000026EEE70126ECE70226EAE70326E8E792
:10187000D8F800409443C8F800404C6814F4001FA6
:1018800005D0D9F800401443C9F8004004E0D9F865
:1018900000409443C9F800404C6814F4003F05D060
:1018A000DAF800401443CAF8004004E0DAF80040D7
:1018B0009443CAF800404C6814F4803F05D0DBF82C
:1018C00000402243CBF8002005E0DBF8004024EA8A
:1018D0000202CBF800200CF1010C0A6832FA0CF27B
:1018E0007FF41BAFBDE8F88F080401400000111021
:1018F00000100240002A01D0016170470904016113
:10190000704700000148806870470000080500200B
:101910000248816802781144816070470805002000
:1019200010B50748016841F010010160032000F084
:1019300097F8002000F006F800F026F8002010BD0F
:101940000020024070B504460D4D4FF47A7128789E
:10195000B1FBF0F00B490968B1FBF0F000F050FD6D
:1019600008B1012070BD102C07D200222146501E64
:1019700000F042F86C60002070BD012070BD0000D6
:10198000080500200405002008B500BF1148806943
:1019900040F001000F4988610846806900F00100AD
:1019A000009000BF00BF00BF0846C06940F08050F3
:1019B000C8610846C06900F08050009000BF00BFB9
:1019C00000BF0549486820F0E06040F000704860C2
:1019D00000BF08BD001002400000014000280ADBE3
:1019E00000F01F01012202FA01F14009800000F11C
:1019F000E020C0F80011704710B4184B1B68C3F307
:101A00000223C3F1070CBCF1040F01D94FF0040C01
:101A10001C1D072C01D2002300E0DB1E012404FA68
:101A20000CFCACF1010C0CEA0101994004FA03F33F
:101A30005B1E1A401143002806DB00F1E02009017B
:101A400080F8001410BC704700F00F0000F1E02097
:101A5000090180F8141D10BC704700000CED00E077
:101A600000F00700064A11684FF6FF03194041EAEB
:101A7000002040F0FD7040F0806010607047000072
:101A80000CED00E010B5014600202A4C012925D0BC
:101A9000022945D0102920D16168226812F0807F88
:101AA0001BD02548C1F38342805C11F4803F09D0EC
:101AB0006168224AC1F34041515C214AB2FBF1F115
:101AC000484301E01F494843616811F4800F04D185
:101AD0001D494000A1FB0010400810BD216A01F41F
:101AE0004072B2F5807F05D111F0020F02D04FF4A1
:101AF000004010BDB2F5007F06D1626A12F0020FFD
:101B000002D049F6404010BD4FF4407232EA010164
:101B1000F9D1216811F4003FF5D04FF2244010BDF7
:101B200000F082F96168C1F38131491C4900B0FBC2
:101B3000F1F010BD00100240384A0008364A000893
:101B400000127A0000093D00ABAAAAAA2DE9F843C9
:101B50000446DFF81C81207810F0010F6CD00027BC
:101B6000D8F81C0010F0805F0BD1D8F81C0040F0B2
:101B70008050C8F81C00D8F81C0000F0805000907D
:101B800001273C4D286810F4807F16D1286840F466
:101B900080702860FFF7B6FE0646286810F4807F44
:101BA0000BD1FFF7AFFE801B642802D90320BDE8EC
:101BB000F883286810F4807FF3D0D8F8200000F470
:101BC000407048B3A18801F44071814224D0D8F814
:101BD000200020F44070284901220A6000220A6097
:101BE000C8F8200010F0010F16D0FFF78BFE054655
:101BF000D8F8200010F0020F0ED141F28836FFF71E
:101C000081FE401BB04202D90320BDE8F883D8F81A
:101C1000200010F0020FF2D0D8F82000616820F404
:101C200040700843C8F82000012F05D1D8F81C00E7
:101C300020F08050C8F81C00207810F0020F07D068
:101C4000D8F80400A16820F440400843C8F8040014
:101C5000207810F0100F07D0D8F80400E16820F4C5
:101C600080000843C8F804000020BDE8F8830000A5
:101C70000010024000700040400442422DE9F0474D
:101C800004460D46002C17D0DFF85C81D8F8000020
:101C900000F00700A84212D2D8F8000020F0070098
:101CA0002843C8F80000D8F8000000F00700A84258
:101CB00005D00120BDE8F0870120BDE8F08720684D
:101CC0004A4E10F0020F14D010F0040F03D07068C9
:101CD00040F4E0607060207810F0080F03D0706866
:101CE00040F460507060706820F0F001A068084314
:101CF0007060207810F0010F3AD06068012806D09B
:101D000002280BD0316811F0020F27D00AE03168A9
:101D100011F4003F06D10120BDE8F087316811F0D1
:101D2000007F18D0716821F0030108437060FFF74D
:101D3000E9FD07467068616800F00C00B0EB810FA8
:101D400016D041F28839FFF7DDFDC01B484508D9A0
:101D50000320BDE8F0870120BDE8F0870120BDE841
:101D6000F0877068616800F00C00B0EB810FEAD179
:101D7000D8F8000000F00700A8420FD9D8F80000FA
:101D800020F007002843C8F80000D8F8000000F051
:101D90000700A84202D00120BDE8F087207810F0AB
:101DA000040F05D07068E16820F4E06008437060BB
:101DB000207810F0080F06D07068216920F4605078
:101DC00040EAC100706000F03FF87168084AC1F352
:101DD0000311515CC8400749086007480068FFF7D5
:101DE000B1FD0020BDE8F087002002400010024055
:101DF0000C4A0008040500200C050020014800687A
:101E0000704700000405002000B5FFF7F7FF044904
:101E10004968044AC1F30221515CC84000BD00007A
:101E2000001002401C4A000800B5FFF7E7FF044914
:101E30004968044AC1F3C221515CC84000BD00009A
:101E4000001002401C4A00080E4B59680E4801F071
:101E50000C02042A11D0082A0FD10C48C1F3834286
:101E6000805C11F4803F09D05968094AC1F34041B0
:101E7000515C054A5043B0FBF1F0704705494843B7
:101E8000704700000010024000127A00264A000845
:101E9000244A000800093D002DE9F84F0446002CB3
:101EA0000FD02078F84D10F0010F6CD0686800F06A
:101EB0000C0004280CD0686800F00C00082803D03F
:101EC00010E00120BDE8F88F686810F4803F09D069
:101ED000286810F4003F56D06068002853D10120D4
:101EE000BDE8F88F6068B0F5803F15D0C8B1B0F597
:101EF000A02F1FD0286820F480302860286820F4A4
:101F000080202860606858B3FFF7FCFC064628680C
:101F100010F4003F17D036E0286840F48030286085
:101F2000F0E7286820F480302860286820F48020BA
:101F30002860E7E7286840F480202860286840F49B
:101F400080302860DEE7FFF7DDFC801B642802D9C3
:101F50000320BDE8F88F286810F4003FF3D012E0AA
:101F6000FFF7D0FC0646286810F4003F0BD0FFF7BF
:101F7000C9FC801B642802D90320BDE8F88F2868BB
:101F800010F4003FF3D12078C04F10F0020F4FF053
:101F9000010B4FF0000854D0686810F00C0F14D0FB
:101FA000686800F00C00082803D1686810F4803FCE
:101FB0000BD0206978B3C7F800B0FFF7A3FC064642
:101FC000286810F0020F12D01DE0286810F0020FF0
:101FD00005D02069012802D00120BDE8F88F2868CB
:101FE000616920F0F80040EAC100286029E0FFF7AD
:101FF00089FC801B022802D90320BDE8F88F2868DD
:1020000010F0020FF3D02868616920F0F80040EA70
:10201000C100286015E0FFE7C7F80080FFF772FCF9
:102020000646286810F0020F0BD0FFF76BFC801BF0
:10203000022802D90320BDE8F88F286810F0020FAB
:10204000F3D1207810F0080F30D09148A169C1B1C8
:10205000C0F800B0FFF756FC0646686A10F0020FA1
:102060000BD1FFF74FFC801B022802D90320BDE8EB
:10207000F88F686A10F0020FF3D0012001F098FA8F
:1020800014E0C0F80080FFF73DFC0646686A10F0D7
:10209000020F0BD0FFF736FC801B022802D9032069
:1020A000BDE8F88F686A10F0020FF3D1207810F0C5
:1020B000040F6FD00026E86910F0805F08D1E8694E
:1020C00040F08050E861E86900F0805000900126FF
:1020D000DFF8C0A1DAF8000010F4807F1BD1DAF835
:1020E000000040F48070CAF80000FFF70BFC814646
:1020F000DAF8000010F4807F0DD1FFF703FCA0EBAD
:102100000900642802D90320BDE8F88FDAF800003E
:1021100010F4807FF1D0E068012816D0D0B10528F6
:1021200021D0286A20F001002862286A20F00400EB
:102130002862E06841F2883A68B3FFF7E3FB814622
:10214000286A10F0020F17D03AE0286A40F0010028
:102150002862EEE7286A20F001002862286A20F051
:1021600004002862E5E7286A40F004002862286A33
:1021700040F001002862DCE7FFF7C4FBA0EB090098
:10218000504502D90320BDE8F88F286A10F0020FED
:10219000F2D015E01AE0FFE7FFF7B4FB8146286AAA
:1021A00010F0020F0CD0FFF7ADFBA0EB090050457B
:1021B00002D90320BDE8F88F286A10F0020FF2D18F
:1021C000012E03D1E86920F08050E861E069E8B3AE
:1021D000696801F00C0108295ED0022810D0C7F808
:1021E0006080FFF78FFB0446286810F0007F66D000
:1021F000FFF788FB001B022841D90320BDE8F88FB8
:10220000C7F86080FFF77EFB0646286810F0007F65
:102210000BD0FFF777FB801B022802D90320BDE813
:10222000F88F286810F0007FF3D1206AB0F5803F66
:1022300005D16868A16820F4003008436860616ACD
:10224000206A0843696821F4741100E037E008430C
:102250006860C7F860B0FFF755FB0446286810F0C7
:10226000007F2CD1FFF74EFB001B022802D9032070
:10227000BDE8F88F286810F0007FF3D01FE02868D1
:1022800010F0007FB4D11AE000100240000042427A
:10229000800442420070004001280DD06868226A24
:1022A00000F48031914204D1616A00F470108842D8
:1022B00005D00120BDE8F88F0120BDE8F88F00208F
:1022C000BDE8F88F70B50446002C09D0606A00257F
:1022D00040B125616561A56294F8510040B10CE000
:1022E000012070BD6068B0F5827FF4D0E561F2E74F
:1022F00084F85050204600F03FF8022084F8510046
:102300002068016821F040010160A088218900F463
:10231000827001F404410843A18901F4006108437B
:10232000217C01F002010843217D01F001010843F5
:10233000218B01F400710843217F01F0380108432B
:1023400094F8201001F080010843218D01F4005120
:10235000084321680860A169042000EA114021684F
:1023600048602068C16921F40061C1616565012090
:1023700084F85100002070BD10B586B004460020DE
:1023800002900390049005901949206888422DD14D
:1023900000BF1848806940F480501649886108469B
:1023A000806900F48050019000BF00BF00BF084664
:1023B000806940F0080088610846806900F00800E4
:1023C000019000BF00BF282002900220039003204C
:1023D000059002A90848FFF78FF900BF0749486830
:1023E00040F0E06040F00100486000BF06B010BD62
:1023F0000030014000100240000C0140000001408C
:10240000401EB0F1807F01D3012070474FF0E021E2
:102410004861044AF020107000208861072008619C
:102420000020704723ED00E07047704790F83C2093
:10243000012A2CD0012280F83C20CA680023D1F860
:1024400008C022F4407242EA0C02D1F804C022F41F
:10245000806242EA0C02D1F800C022F4006242EA33
:102460000C02D1F810C022F4805242EA0C02D1F8DA
:1024700014C022F4005242EA0C02C96922F48042DC
:1024800011430268516480F83C30002070470220FC
:10249000704730B490F83C20012A30D0012480F8F5
:1024A0003C40022280F83D200268D2F804C09368C4
:1024B0002CF0700C0D6845EA0C0CC2F804C00268E0
:1024C000A2F1804CBCF5963C0CD0B2F1804F09D003
:1024D000A2F1804CBCF5806C04D0A2F1804CBCF51C
:1024E000006C04D123F0800349681943916080F89F
:1024F0003D40002180F83C1030BC0020704730BCCB
:102500000220704710B50446002909D004290AD0DA
:1025100008290BD094F8450001280AD0012010BDED
:1025200094F84200F8E794F84300F5E794F8440083
:10253000F2E7022089B3042933D0082934D084F883
:1025400045000422206801F005F92068416C41F43F
:10255000004141642068A0F18041B1F5963112D06C
:10256000B0F1804F0FD0A0F18041B1F580610AD069
:10257000A0F18041B1F5006105D0016841F0010191
:102580000160002010BD816801F007010629F8D024
:10259000016841F001010160F3E7FFE784F84200C0
:1025A000CFE784F84300CCE784F84400C9E710B5CE
:1025B0000446002C03D094F83D0010B107E0012040
:1025C00010BD002084F83C00204600F01FF80220D7
:1025D00084F83D00211D206801F078F8012084F87E
:1025E000460084F83E0084F83F0084F8400084F8F8
:1025F000410084F8420084F8430084F8440084F8E1
:10260000450084F83D00002010BD000038B50446A8
:102610002068B0F1804F16D100BF1448C06940F067
:1026200001001249C8610846C06900F0010000902D
:1026300000BF00BF002201211C20FFF7DDF91C2094
:10264000FFF7CCF911E00A49206888420DD100BF9C
:102650000648C06940F004000449C8610846C069E2
:1026600000F00400009000BF00BF38BD0010024021
:102670000008004090F83D10012901D0012070476A
:10268000022180F83D100068A0F18041B1F596313B
:1026900012D0B0F1804F0FD0A0F18041B1F5806130
:1026A0000AD0A0F18041B1F5006105D0016841F088
:1026B0000101016000207047816801F007010629CF
:1026C000F8D0016841F001010160F3E790F83D1096
:1026D000012901D001207047022180F83D100168D6
:1026E000CA6842F00102CA600068A0F18041B1F5F9
:1026F000963112D0B0F1804F0FD0A0F18041B1F5EA
:1027000080610AD0A0F18041B1F5006105D0016877
:1027100041F00101016000207047816801F007016C
:102720000629F8D0016841F001010160F3E7016872
:102730000A6A41F211131A4207D10A6A9B101A421F
:1027400003D10A6822F001020A60012180F83D10DD
:102750000020704770B50446002594F83C0001281D
:1027600018D0012684F83C60022084F83D002068DF
:10277000826822F0770222F47F4282600868502843
:1027800039D00EDC202854D006DC002851D0102887
:1027900011D14EE0022070BD30284AD040280AD125
:1027A0003DE0602831D070280DD0B0F5805F03D0B7
:1027B000B0F5005F13D0012584F83D60002084F857
:1027C0003C00284670BDCB684A688968206800F0E4
:1027D000D0FF2068816841F077018160ECE7CB6829
:1027E0004A688968206800F0C4FF2068816841F465
:1027F00080418160E0E7CA684968206801F09CF880
:102800005021206800F0C0FFD6E7CA6849682068F8
:1028100001F0A5F86021206800F0B6FFCCE7CA6897
:102820004968206801F088F84021206800F0ACFF7A
:10283000C2E722680146104600F0A6FFBCE77047D9
:102840002DE9F04104462068C56806694FF000078D
:1028500016F0020F16D015F0020F13D0F91E016109
:10286000012020772068806910F0030F03D02046F4
:10287000FFF7E5FF05E0204600F0C4F8204600F031
:1028800075F9277716F0040F18D015F0040F15D03E
:1028900021686FF0040008610220207720688069B9
:1028A00010F4407F03D02046FFF7C9FF05E0204623
:1028B00000F0A8F8204600F059F9277716F0080F25
:1028C00018D015F0080F15D021686FF008000861C6
:1028D000042020772068C06910F0030F03D0204641
:1028E000FFF7ADFF05E0204600F08CF8204600F031
:1028F0003DF9277716F0100F18D015F0100F15D0EE
:1029000021686FF010000861082020772068C069F6
:1029100010F4407F03D02046FFF791FF05E02046EA
:1029200000F070F8204600F021F9277716F0010F2B
:1029300009D015F0010F06D021686FF00100086181
:10294000204600F015F916F0800F09D015F0800F21
:1029500006D021686FF0800008612046FFF764FD13
:1029600016F0400F09D015F0400F06D021686FF027
:1029700040000861204600F055F916F0200F0BD0FA
:1029800015F0200F08D021686FF020000861204664
:10299000BDE8F041FFF749BDBDE8F08110B586B054
:1029A000044600200290039004900590114920688D
:1029B00088421CD100BF1048806940F008000E49D1
:1029C00088610846806900F00800019000BF00BFE0
:1029D0004FF400500290022003900320059002A9BA
:1029E0000648FEF789FE00210548FFF78BFD06B07B
:1029F00010BD0000002C014000100240000C0140FE
:102A000018060020704770B504460D46002694F85D
:102A10003C0001280FD0012084F83C006AB1042A50
:102A20001FD0082A32D00C2A44D00126002084F876
:102A30003C00304670BD022070BD2946206800F081
:102A4000ABFE2068816941F00801816120688169DD
:102A500021F004018161206881692A691143816143
:102A6000E4E72946206800F0CBFE2068816941F444
:102A7000006181612068816921F480618161206841
:102A800081692A6941EA02218161CFE729462068EC
:102A900000F0EAFE2068C16941F00801C1612068C8
:102AA000C16921F00401C1612068C1692A6911432B
:102AB000C161BBE72946206800F00AFF2068C169B0
:102AC00041F40061C1612068C16921F48061C16184
:102AD0002068C1692A6941EA0221C161A6E710B5EF
:102AE0000446002C03D094F83D0010B107E001200B
:102AF00010BD002084F83C00204600F01FF80220A2
:102B000084F83D00211D206800F0E0FD012084F8DC
:102B1000460084F83E0084F83F0084F8400084F8C2
:102B2000410084F8420084F8430084F8440084F8AB
:102B3000450084F83D00002010BD000008B5094A9A
:102B4000016891420DD100BF0749896941F40061D4
:102B5000054A91611146896901F40061009100BF45
:102B600000BF08BD002C014000100240704700006B
:102B700010B50446204884423CD100F023FF1F4892
:102B80000088401C1D4908801D480088401C1C49C5
:102B900008801C480088401C1A4908801A480068B0
:102BA000401C1949086019480088401C17490880D2
:102BB00017480068401C1649086016480068401C09
:102BC0001449086011480088401C104908801248C8
:102BD000008878B110480088401E80B20E490880F5
:102BE00040B90E48008840F400400C49088001209C
:102BF0000B49087010BD0000600600202400002072
:102C0000300000203E0000205C0000204400002036
:102C10005000002038000020720000206A000020D0
:102C2000620000207047704770470000F8B5044606
:102C300022681068D168536900F00F0CBCF1000FD6
:102C40000AD110F0200F07D011F0200F04D0204639
:102C5000BDE8F84001F03CBB0025BCF1000F75D089
:102C600003F0010C01F490765CEA06066ED010F0D9
:102C7000010F06D011F4807F03D0626C42F0010294
:102C8000626410F0040F06D013F0010F03D0626CE1
:102C900042F00202626410F0020F06D013F0010F3E
:102CA00003D0626C42F00402626410F0080F08D096
:102CB00001F0200252EA0C0203D0626C42F00802DA
:102CC0006264626C002A35D010F0200F05D011F03C
:102CD000200F02D0204601F0FBFA20684069C0F3C3
:102CE0008010616C11F0080F00D148B3204601F04C
:102CF000BBFA2068406910F0400F1CD020681430E7
:102D000050E8001F21F0400140E80012002AF5D1F0
:102D1000E06B60B15E494163E06BFEF79BFC00280D
:102D200008D0E06B416B01B0BDE8F0400847204699
:102D3000FFF77AFFF8BD2046FFF776FFF8BD05E004
:102D4000FFE72046FFF770FF6564F8BD236B012B9A
:102D50007DD110F0100F7AD011F0100F77D01068DD
:102D60005068009050694FF0200310F0400F4FF072
:102D7000020643D0E16B0868406880B20028E4D0C6
:102D8000A28D8242E1D9E085886920282DD0206873
:102D90000C3050E8001F21F4807140E80012002A36
:102DA000F5D12068143050E8001F21F0010140E8FF
:102DB0000012002AF5D12068143050E8001F21F0DD
:102DC000400140E80012002AF5D184F84230256322
:102DD00020680C3050E8001F21F0100140E800127C
:102DE000002AF5D1E06BFEF711FC6663A08DE18D42
:102DF000401A81B22046FFF716FFF8BDA08DE18D85
:102E0000401A81B2E08D0028F7D00029F5D0206863
:102E10000C3050E8002F22F4907240E8002CBCF1F6
:102E2000000FF4D12068143050E8002F22F0010286
:102E300040E8002CBCF1000FF4D184F84230256347
:102E400020680C3050E8002F22F0100200E008E06B
:102E500040E80023002BF3D166632046FFF7E3FE32
:102E6000F8BD10F0800F07D011F0800F04D020467D
:102E7000BDE8F84001F012BB10F0400FF0D011F0A7
:102E8000400FEDD02046BDE8F84001F014BA000034
:102E90005942000870B50446002C04D094F8410053
:102EA000002510B106E0012070BD84F84050204696
:102EB00000F024F8242084F841002068C16821F43F
:102EC0000051C160204601F069FA2068016921F4CF
:102ED000904101612068416921F02A014161206827
:102EE000C16841F40051C1606564202084F841004C
:102EF00084F842006563002070BD000010B586B004
:102F00000446002002900390049005902249206816
:102F100088423ED100BF2148806940F480401F496B
:102F200088610846806900F48040019000BF00BFBE
:102F300000BF0846806940F0080088610846806943
:102F400000F00800019000BF00BF40200290022066
:102F500003900320059002A91148FEF7CDFB8020C5
:102F6000029000200390049002A90D48FEF7C4FBD4
:102F700000BF0C49486840F0E06040F00400486041
:102F800000BF002211462520FEF736FD2520FEF762
:102F900025FD06B010BD00000038014000100240C1
:102FA000000C01400000014090F84230202B01D07D
:102FB0000220704721B11AB10023036301F052BA15
:102FC0000120704710B504461248844221D11248AE
:102FD000008814280EDA1148007811490E4A128828
:102FE00088540D480088401C0B49088007200D4973
:102FF000088008E00848008840F40040064908803E
:10300000012009490870012204492046FFF7CCFF3E
:1030100000BF10BDF00600206A00002068000020FC
:103020002C05002072000020620000202DE9F843EA
:1030300004460E4615461F4694F84100202802D04B
:103040000220BDE8F8837EB175B1002060642120C4
:1030500084F84100FEF756FC8146A584E584A0680B
:10306000B0F5805F03D004E00120BDE8F88320695B
:1030700090B135460026E08C4FF02008C8B14B4691
:10308000002280212046009701F037FA30B184F801
:1030900041800320BDE8F8830025ECE7B5B1216845
:1030A000287848606D1CE08C401EE084E08C00288D
:1030B000E5D14B46002240212046009701F01DFA41
:1030C00058B184F841800320BDE8F8833088216836
:1030D000C0F308004860B61CE5E784F84180002092
:1030E000BDE8F883704700BFFEE7000010B501227D
:1030F00010210B48FEF7FEFB012211020848FEF7E3
:10310000F9FB00200749088008460188064800F0BE
:1031100007FC012204210248FEF7ECFB10BD000071
:10312000000C014060000020002C01400EB5002082
:103130000090019002904548454908608115444837
:103140008160002101730121017581614FF46021CB
:10315000C16100203E4948600A213D480161FDF7F8
:1031600045FF08B1FDF7CBFD002000900120019044
:103170000720029069463648FDF7A0FE08B1FDF72A
:10318000BEFD012000900220019069463048FDF705
:1031900095FE08B1FDF7B3FD0220009003200190D9
:1031A00069462B48FDF78AFE08B1FDF7A8FD03200C
:1031B00000900420019069462548FDF77FFE08B184
:1031C000FDF79DFD042000900520019069462048F0
:1031D000FDF774FE08B1FDF792FD05200090062072
:1031E000019069461A48FDF769FE08B1FDF787FDB1
:1031F000062000900720019069461548FDF75EFE05
:1032000008B1FDF77CFD0720009008200190694679
:103210000F48FDF753FE08B1FDF771FD082000903F
:103220000920019069460A48FDF748FE08B1FDF7FC
:1032300066FD092000900A20019069460448FDF7C8
:103240003DFE08B1FDF75BFD0EBD0000002401400E
:103250006805002010B50F480F4908600820486035
:1032600000210D488160C1604FF4002101614FF4DD
:10327000E001416100210176417681760121C1762C
:10328000002101774177FEF7C1F808B1FDF737FD5E
:1032900010BD0000006400409805002000B585B016
:1032A0000020019002900390049000BF394880698B
:1032B00040F01000374988610846806900F010002E
:1032C000009000BF00BF00BF0846806940F02000AA
:1032D00088610846806900F02000009000BF00BFB0
:1032E00000BF0846806940F0040088610846806994
:1032F00000F00400009000BF00BF00BF08468069D6
:1033000040F0080088610846806900F008000090DD
:1033100000BF00BF00224FF4C0411F48FEF7EAFA89
:10332000012204211D48FEF7E5FA00224DF210119A
:103330001A48FEF7DFFA00224FF407411848FEF75B
:10334000D9FA4FF4C0400190012002900020039070
:103350000220049001A91048FEF7CEF94DF2141096
:10336000019001200290002003900220049001A906
:103370000A48FEF7C1F94FF407400190012002907E
:10338000002003900220049001A90548FEF7B4F93B
:1033900005B000BD0010024000100140000C0140CB
:1033A0000008014010B50E480E4908604FF48270C5
:1033B000486000210B488160C160016141614FF4A8
:1033C000007181613821C161002101624162816225
:1033D0000A21C162FEF776FF08B1FDF790FC10BD2F
:1033E00000300140C005002000B591B000200F90D2
:1033F00010901C2108A8FCF7AEFE20216846FCF7BF
:10340000AAFE234823490860232048600021214860
:1034100081606321C160002101614161802181617E
:10342000FFF75DFB08B1FDF76AFC40200F9000201C
:1034300010900FA91748FFF72CF808B1FDF75FFCB3
:1034400070200890002009900A900B900C900D902D
:103450000E90002208A90F48FFF7D5FA08B1FDF732
:103460004EFC0020009001900290039004904FF4D5
:10347000005005900020079069460648FEF7D6FFE9
:1034800008B1FDF73CFC0348FFF788FA11B000BD16
:10349000002C01401806002000B587B000200390E2
:1034A000049005900690019002904FF080401449DE
:1034B00008604720486000211148816040F2E731F0
:1034C000C1600021016180218161FFF770F808B1BE
:1034D000FDF715FC4FF48050039003A90848FFF74F
:1034E00039F908B1FDF70BFC00200190029001A909
:1034F0000348FEF7CEFF08B1FDF701FC07B000BDA1
:103500006006002000B587B000200390049005906D
:1035100006900190029014481449086047204860C2
:103520000021124881600121C16000210161816197
:10353000FFF73DF808B1FDF7E2FB4FF48050039030
:1035400003A90A48FFF706F908B1FDF7D8FB0020E8
:103550000190029001A90548FEF79BFF08B1FDF715
:10356000CEFB07B000BD000000080040A806002008
:1035700010B50B480B4908604FF4614048600021CA
:1035800008488160C16001610C21416100218161B5
:10359000C161FFF77FFC08B1FDF7B1FB10BD000072
:1035A00000380140F006002000BFFEE7704770477A
:1035B00081B007494FF4FA520968B1FBF2F1484370
:1035C000009000BF0098411E0091FAD201B07047F0
:1035D00004050020704710B5FEF79AF910BD00B53C
:1035E00093B0282109A8FCF7B6FD142104A8FCF724
:1035F000B2FD0020009001900290039001200990FC
:1036000000040A9000200B9001200D9002201090E1
:10361000C10311914FF4E011129109A8FEF73CFC8F
:1036200008B1FDF76CFB0F200490022005900020EC
:1036300006904FF48060079000200890022104A8B3
:10364000FEF71CFB08B1FDF75AFB02200090800337
:1036500002906846FEF77AFA08B1FDF750FB13B006
:1036600000BD00001148006840F001000F490860EB
:10367000084640680E4908400C4948600846006802
:103680000C490840094908600846006820F4802079
:1036900008600846406820F4FE0048604FF41F00B0
:1036A0008860C803044908607047000000100240A9
:1036B0000000FFF8FFFFF6FE08ED00E010B502483D
:1036C000FFF7BEF810BD00006006002030B40268AD
:1036D0001D4B1E4CDFF878C0984206D0B0F1804FE9
:1036E00003D0A04201D0604503D122F070024D68A2
:1036F0002A43984206D0B0F1804F03D0A04201D0B7
:10370000604505D122F44072D1F80CC04CEA0202A7
:10371000D1F814C022F0800242EA0C0202608A68EA
:10372000C2620A688262984201D10969016301217B
:103730004161016911F0010F03D0016921F001011C
:10374000016130BC70470000002C014000040040C3
:103750000008004001F00F0104238B40D0F820C086
:103760002CEA03030362036A02FA01F119430162BE
:103770007047D0F808C02CF47F4C42EA0322114372
:1037800041EA0C0181607047826822F070021143A7
:1037900041F007018160704710B4036A026A22F0A9
:1037A000010202624268D0F818C02CF0700C2CF0B4
:1037B000030C0C6844EA0C0C23F002038C682343CE
:1037C0000E4CA04206D123F00803CC6844EA030360
:1037D00023F0040309D122F4807222F400724C69B0
:1037E00044EA02028C6944EA02024260C0F818C04E
:1037F00049684163036210BC70470000002C01401F
:1038000010B4036A026A22F0100202624268D0F821
:1038100018C02CF4E04C2CF4407C0C684CEA042CCE
:1038200023F020038C6843EA04130E4CA04206D117
:1038300023F08003CC6843EA041323F0400309D14A
:1038400022F4806222F400624C6942EA84028C69AC
:1038500042EA84024260C0F818C04968816303628A
:1038600010BC7047002C014010B4036A026A22F4B5
:10387000807202624268D0F81CC02CF0700C2CF0F0
:10388000030C0C6844EA0C0C23F400738C6843EAC4
:1038900004230E4CA04206D123F40063CC6843EA13
:1038A000042323F4806309D122F4805222F40052CD
:1038B0004C6942EA04128C6942EA04124260C0F880
:1038C0001CC04968C163036210BC7047002C0140F2
:1038D00010B4036A026A22F4805202624268D0F88D
:1038E0001CC02CF4E04C2CF4407C0C684CEA042CFA
:1038F00023F400538C6843EA0433A0F18044B4F508
:10390000963404D122F480424C6942EA8412426027
:10391000C0F81CC049680164036210BC7047000015
:10392000044A1160121D1160121D1160121D1160F8
:1039300070470000342C0140036AD0F820C02CF0FE
:10394000010CC0F820C0D0F818C02CF0F00C4CEAE4
:10395000021223F00A031943826101627047036A6D
:10396000D0F820C02CF0100CC0F820C0D0F818C03F
:103970002CF4704C4CEA023223F0A00343EA01110C
:10398000826101627047000010B5002414E004EB6E
:1039900044000B4911F8200060B104EB4401084ACF
:1039A00002EB810188688047002004EB4401044A4F
:1039B00002F82100601CC4B2062CE8DB10BD000038
:1039C000B004002000202AE000EB4001154A02EB81
:1039D0008101498809B300EB400102EB810149886C
:1039E000491E00EB40020F4B03EB8202518000EBBB
:1039F00040011A4602EB8101498871B900EB400190
:103A000002EB8101898800EB400203EB82025180C6
:103A1000012100EB400203F82210411CC8B2062825
:103A2000D2DB7047B004002010B53F480078012871
:103A300078D13E480078012813D13D48007880B9FC
:103A400000224FF480513B48FDF754FF00203A49D3
:103A500008803A490870012035490870002038492B
:103A600008803548008837490968884214D93048A9
:103A70000078012810D12D48007801280CD10020B1
:103A80002D4908802A490870012211032948FDF7B1
:103A900031FF00202549087028480078012810D1FE
:103AA0002348007868B900224FF480512148FDF77F
:103AB00021FF0020204908802049087001201C496E
:103AC00008702148006821490968884216D91A48B7
:103AD00000881F490968884224D9154800780128C0
:103AE00020D1002014490880174908601049087047
:103AF000012211030F48FDF7FDFE13E00E48008878
:103B00001449098888420DDD09480078012809D147
:103B10000020094908800649087001221103054860
:103B2000FDF7E8FE10BD0000020000205400002058
:103B300021000020000C01403E0000202000002059
:103B40004400002058000020500000204C000020BD
:103B500048000020400000200E4800880E490988D7
:103B6000884208DD0D48007828B90D48007810B962
:103B700001200A4908700B4800680B49884208D99F
:103B80000648007828B90648007810B90120034992
:103B900008707047440000204200002020000020F0
:103BA0002100002038000020E09304002DE9F04FB0
:103BB00087B0FE48007801287DDAFC480078401C78
:103BC000FA49087001210020FDF7B4F840F6E441FD
:103BD00000FB01F4E01704EB1050F549096801EB14
:103BE0002030F349086001210846FDF7A3F840F6AC
:103BF000E44100FB01F4E01704EB1050EC49496884
:103C000001EB2030EA49486001210220FDF792F8DB
:103C100040F6E44100FB01FA5046FCF705FD804602
:103C20004FF06632E34BFCF710FC06460022E24BF5
:103C3000FCF77DFC04460D46DD498868FCF705FD70
:103C400022462B46CDE90201FCF758FBCDE90401E1
:103C5000FCF73BFDD649886001210320FDF76AF897
:103C600040F6E44148430390FCF7DEFC4FF0663237
:103C7000D04BCDE90401FCF7E8FB82460022CE4B95
:103C8000FCF755FC06460F46C949C868FCF7DDFC41
:103C9000804632463B46FCF731FB0446FCF715FDF7
:103CA000C349C86001210420FDF744F840F6E4410F
:103CB0004843039000E072E0FCF7B6FC82464FF008
:103CC0006632BC4BFCF7C1FB80460022BA4BFCF7C6
:103CD0002EFCCDE90401B6490869FCF7B6FC06469E
:103CE000DDE90423FCF70AFB0446FCF7EEFCB049CF
:103CF000086101210520FDF71DF840F6E44100FBB5
:103D000001F4E01704EB1050A949496901EB203098
:103D1000A749486101210620FDF70CF840F6E4416F
:103D200000FB01F4E01704EB1050A149896901EB95
:103D300020309F49886101210720FCF7FBFF40F6F6
:103D4000E44148434400E01704EB10509849C96926
:103D500001EB20309649C86101210820FCF7EAFFF9
:103D600040F6E44100FB01F4E01704EB10509049E9
:103D7000096A01EB20308E4908620A210920FCF70C
:103D8000D9FF40F6E44100FB01F4E01704EB1050CA
:103D90008749496A01EB203085494862C1E184487E
:103DA00000688349086008464068486008468068A3
:103DB00088600846C068C86008460069086108460F
:103DC000406948610846806988610846C069C861E1
:103DD0000846006A08620846406A486273480078EC
:103DE000FCF733FC82468B4671494868FCF717FCA8
:103DF0000190FCF783FC8046704A714BFCF725FB71
:103E000052465B46CDE90201FCF791FB06460022D3
:103E10006C4BFCF78CFB04466B4A6C4BFCF70FFBBE
:103E200021F00041CDE90401FCF74FFC684908800E
:103E30005F4800695D490978B0FBF1F00A21B0FBE9
:103E4000F1F06449088008460088FCF7E8FB8246E8
:103E5000FCF754FC0646604A604BFCF7F6FA044651
:103E600000225F4BFCF74AFA21F000418046FCF744
:103E70002CFC584908804E48C0684C490978B0FB72
:103E8000F1F00A21B0FBF1F056490880084600889D
:103E9000FCF7C5FB8246FCF731FC8046524A534B87
:103EA000FCF7D3FA06460022514BFCF727FA21F023
:103EB00000410446FCF709FC4A4908803B48007869
:103EC000FCF7ADFB83463A49486AFCF7A8FB594624
:103ED0000590FCF7D5F982464649FCF7D1F98146B1
:103EE0004549FCF79BF90446FCF708FC0746364AAF
:103EF000424BFCF7A4FA21F000410546FCF7E5FB34
:103F00003F49088029480078FCF789FB8146284909
:103F10000868FCF784FB82464946FCF7B1F906467F
:103F20003449FCF7ADF905463649FCF777F9044604
:103F3000FCF7E4FB21F000410746FCF7C6FB3249E1
:103F400008801B48806819490978B0FBF1F00A2104
:103F5000B0FBF1F02D49088015494869FCF75FFB7B
:103F60000390FCF7CBFB0646294A2A4BFCF76DFA77
:103F700004460022284BFCF765FACDE904010C4900
:103F80004869FCF74CFB07462449FCF747F906460D
:103F9000FCF7B4FB04461E4A1E4BFCF756FA824659
:103FA000DDE90423FCF7C3FA804639E00005002070
:103FB0004005002066663E400000B040295C8FC28C
:103FC000F5F87340000059400AD7A3703D0A2D4010
:103FD00004000020060000204DF38E537424E93FB6
:103FE000009064400E000020FB5C6DC5FEB2E33F14
:103FF000005294400000C8420000A9433D0AD73F48
:104000000C00002000007842100000201200002068
:10401000FCA9F1D24D62503F0000144000004C4218
:10402000FCF798FB4049086040490988404A1288DB
:104030001144404A128801FB02F0FCF7F5FA0646EB
:104040003D4A3E4BFCF701FA0446FCF73EFB3C4977
:1040500008603C48C069B0F5FA7F03D24FF4FA70AB
:104060003849C8613749C969A1F5FA70FCF7DCFA2B
:104070008046354A354BFCF7E8F906460022344BBA
:10408000FCF7E3F90446FCF720FB324908802D4990
:104090008869FCF7C4FA0390FCF730FB06462A4A0D
:1040A0002A4BFCF7D2F9044600222B4BFCF7CAF945
:1040B0008046894623498869FCF7B1FA07462749B3
:1040C000FCF7ACF80646FCF719FB04461E4A1F4BEA
:1040D000FCF7BBF9824642464B46FCF728FACDE98D
:1040E0000401FCF737FB1E4908601E4800881E28A3
:1040F00002DA00200D4908801B480088142802DAE3
:1041000000201949088000200E4908604860886036
:10411000C860086148618861C861086248621349E3
:10412000087007B0BDE8F08F2800002004000020D0
:104130000C000020120000202D431CEBE2361A3F39
:104140000800002040050020FCA9F1D24D62503F3C
:1041500000002940160000200000144000004C42DE
:104160002C00002006000020100000200005002088
:1041700010B515A000F06EFA4FF4877300221548B1
:104180000168154800F0CEFB1E3800EBC00101EBC2
:1041900000104FF6FF7101EA8000104908804FF4CB
:1041A000877300220E4801680B4800F0BBFB1E38E5
:1041B00000EBC00101EB00104FF6FF7101EA800037
:1041C0000849088010BD00004E5443E4BBBBE58A9B
:1041D000A10A000028000020740000200000002038
:1041E0002C0000201800002010B500F0D5F90E4872
:1041F0000078B8B100F0A4FA14210C48FBF7ABFF2B
:104200000B480078012808D10A4801780A4800784C
:1042100000F0D6FB002006490870002007490880FE
:104220000149087010BD0000620000202C0500202C
:10423000670000206D0000206C0000206A00002054
:1042400010B5FCF751FC0446FCF7E0F901490860A1
:1042500010BD00001C00002010B5406A0021C1857F
:10426000C184FEF7E1FC10BD01680C3151E8002F5C
:1042700022F4907241E80023002BF5D1016814313B
:1042800051E8002F22F0010241E80023002BF5D174
:10429000016B012909D101680C3151E8002F22F08E
:1042A000100241E80023002BF5D1202180F84210B4
:1042B00000210163704710B50168CA6822F040020E
:1042C000CA60202180F84110FEF70CFF002010BDCD
:1042D00008B590F84210222901D0022008BD82685A
:1042E000B2F5805F01D1016929B1816AB2F5805FC1
:1042F0001DD052B10BE0816A02685268C2F3080215
:104300000A80816A891C816209E002697AB10268C7
:10431000526802F07F020A70816A491C8162C18D75
:10432000491E0904090CC18505D0002008BD02689A
:1043300052680A70F0E70168CA6822F02002CA6079
:104340000168CA6822F48072CA6001684A6922F072
:1043500001024A61202180F8421000214163026B72
:10436000012A03D0FEF72EFE002008BD016301687C
:104370000C3151E8002F22F0100241E80023002BFD
:10438000F5D101680A6812F0100F02D00A68496876
:104390000091818DFEF747FCE6E7000070B504460A
:1043A00020680169E26821F44051114301612169EB
:1043B000A0680843616901432068C26822F403725F
:1043C00022F4A0521143C16020684169A26921F41E
:1043D0004071114341612068A0F18041B1F59C31E9
:1043E0003AD0FDF711FD00EBC00101EB0010616850
:1043F0001B4A8900B0FBF1F3A2FB0353B0FBF1FCB5
:104400005B096FF018056B430CEB83034FF0320C24
:104410000CEB0313A2FB03535B0903F0F005B0FBA5
:10442000F1F3A2FB03635B0905EB0313B0FBF1F5AA
:10443000B0FBF1F0A2FB001040096FF018014843F7
:1044400005EB80000CEB0010A2FB00102168C0F30C
:1044500043101844886070BDFDF7E6FCC3E7000018
:104460001F85EB5181628285C28500214164222132
:1044700080F842100169002904D00168CA6842F43A
:104480008072CA6001684A6942F001024A610068AC
:10449000C16841F02001C1600020704790F84110D0
:1044A000212901D0022070478168B1F5805F01D1D8
:1044B000016961B1016A4A1C0262026809785160AF
:1044C000C18C491E0904090CC1840AD013E0016A99
:1044D00002680988C1F308015160016A891C016200
:1044E000EEE70168CA6822F08002CA600068C1680D
:1044F00041F04001C160002070472DE9F8430446B7
:10450000089E0D46174698462068006835EA000068
:1045100028D00020B84232D1B6F1FF3F27D0FDF7B6
:10452000F1F9A0EB0800B0421ED8EEB12068C168D6
:1045300011F0040F1BD0802D19D0402D17D0016829
:1045400011F0080F13D00025216809684068009019
:104550002046FFF789FE0820606484F8405001205F
:10456000BDE8F8830120D5E70320BDE8F883206883
:10457000006835EA000005D00020B842CCD0002009
:10458000BDE8F8830120F8E710B50248FEF74EFBBE
:1045900010BD0000F00600201FB500200090019023
:1045A000029003900E208DF8000001208DF801008C
:1045B00000208DF8020004208DF803001F480088B9
:1045C00000F57A60000A8DF804001C48008800F5A8
:1045D0007A60C0B28DF805001948008800128DF885
:1045E0000600174800788DF8070016480068FCF7A9
:1045F00039F8000A8DF8080012480068FCF732F814
:10460000C0B28DF809001048007800128DF80A0039
:1046100000208DF80B000C21684600F043F804469A
:1046200020128DF80C00E0B28DF80D004FF47A7373
:104630000E2269460548FEF7F9FC1FBD0000002068
:10464000180000201C00002021000020F00600209F
:1046500000BFFEE7014A024900F013B829470008ED
:104660001405002002E008C8121F08C1002AFAD170
:1046700070477047002001E001C1121F002AFBD1E2
:1046800070472DE9F04116460F460446002503E029
:104690003946B047641C6D1C20780028F8D12846A4
:1046A000BDE8F08130B503460C464FF6FF7100229D
:1046B00012E0985C414000250AE001F0010020B1C1
:1046C00049084AF20100414000E04908681CC5B2AF
:1046D000082DF2DB501CC2B2A242EADB88B230BD28
:1046E00070B504464FF6FF70001B323885B20C4897
:1046F000FDF7C0FF0B48FEF71AF80948006845624D
:1047000003E007480068406A85B24FF6CD708542E5
:10471000F7DB0448FDF7AEFF0148FEF708F870BD6F
:10472000A80600206006002013B50C464FF6FF7364
:10473000012269460148FEF779FC1CBDF006002005
:1047400000B5564800780C287ED15448407802289D
:10475000FAD15248807801282DD15048007A4F492B
:10476000C97940EA01204E49088007214B48FFF7EC
:1047700099FF4C4908804A4800880988884207D038
:10478000464880784849087002204849087080E00F
:1047900042488079642802DB6420404988713F48A0
:1047A0008079434908803D4880783F49087001205E
:1047B0003E4908706DE039488078022832D1374888
:1047C000007A3649C97940EA012035490880072135
:1047D0003248FFF767FF334908803148008809886D
:1047E000884207D02D4880782F49087002202F4931
:1047F00008704EE0294800792849C97840EA01202C
:104800002C490880254880792449497940EA0120CB
:1048100029490880214880782349087001202349CC
:10482000087036E01D484078032827D11B48007ADD
:104830001A49C97940EA0120194908800721174817
:10484000FFF730FF174900E01EE008801448008899
:104850000988884207D011488078134908700220DF
:104860001249087015E00120144908700B4880783F
:104870000D49087001200D4908700AE0FF200A491F
:1048800008700A49087004E0FE20074908700749CB
:10489000087001200A49087000BD00002C050020A6
:1048A0006E000020700000206C0000206D000020D1
:1048B0006000002040000020420000205400002042
:1048C00067000020FDF72CF8FEF789FEFEF7E6FCF6
:1048D000FEF72CFCFEF788FDFEF7DEFDFEF7BAFCC6
:1048E000FEF746FEFEF75EFDFEF70CFEFEF7FEFB52
:1048F000012209490948FEF757FB6FF001000849FA
:10490000096808610648FDF7E1FEFCF777FE01E063
:10491000FFF73AF8FCE7000068000020F0060020EE
:10492000600600202DE9F0410546884616461F46E0
:10493000F01900EBD0714C1055F826004146FBF7FA
:1049400025FF02D23046BDE8F08155F827004146E8
:10495000FBF726FF01D23846F5E7611C55F8210028
:104960004146FBF713FF17D8611E55F82100414659
:10497000FBF716FF10D8611C55F821004146FBF7E4
:1049800005FF07D855F824004146FBF709FF01D879
:10499000601CD8E72046D6E755F824004146FBF7CF
:1049A000F5FE06D22346324641462846FFF7BAFFB7
:1049B000C9E73B46224641462846FFF7B3FFC2E718
:1049C0007CB504460D460020009001900E208DF825
:1049D000000002208DF801008DF802408DF8035090
:1049E00004216846FFF75EFE064630128DF804008B
:1049F000F0B28DF805004FF47A730622694602483A
:104A0000FEF714FB7CBD0000F00600200000000053
:104A1000000000000102030406070809000000006E
:104A200001020304010202030405060708090A0B38
:104A30000C0D0E0F101001020203040506070809F1
:104A40000A0B0C0D0E0F1010684A00080000002021
:104A50001805000044090008F44E0008180500205D
:104A60002006000074460008014045F401E02E23B2
:104A7000D00794E0930463E80302130D1533344820
:104A800043189B513B43865A2F43283E2443E8EA70
:104A9000194320511043966207435A24FE42BBA794
:104AA000EE425839E042F7C4D242F637C6423B8163
:104AB000BA421A91AF421759A542D4CB9B4222DD8C
:104AC000924296818A42D9AE824260B6764299FB82
:104AD0006842E01C5C42DB0A5042B5B744425316C0
:104AE0003A42A01A3042A7B92642C1E81D429E9E12
:104AF000154254D20D427F7B06421225FF41C5204C
:104B0000F241C6DCE541CD4CDA419565CF410F1C41
:104B1000C5419B66BB41023CB241A993A914203B0D
:104B2000A141FCA99941515A9241D26F8B415AE45B
:104B30008441C3647D4193A97141158C6641190478
:104B40005C413108524197904841EA953F416210DB
:104B50003741DBF92E415E4B2741101520419D1155
:104B600019414A7B1241B5370C41C4420641F697C0
:104B700010EF413867F6403A23EC40925CE240B3D4
:104B80000CD9400E2DD040BBB8C7402AA9BF4072F7
:104B9000F9B740A9A4B040E3A5A94038F8A2405F06
:104BA000989C4041829640C4B19040A3238B40958D
:104BB000D4854055C18040D9CE774088856E40125B
:104BC000A5654046255D40DE025540EF384D403337
:104BD000C445401B9E3E40A8C637404C373140C0BC
:104BE000EC2A4060E52440E71D1F406891194042CF
:104BF0003E1440D1220F40CD3B0A40948705403BF4
:104C0000010140CA54F93F50FCF03F09F9E83F2048
:104C100041E13FDCD7D93FF5B9D23F98DDCB3F0B1F
:104C200046C53F07F0BE3FFED4B83FF1F4B23F980F
:104C30004CAD3FAED8A73F3199A23FDB8A9D3FAC38
:104C4000AD983F16FB933F60768F3FFC188B3FEB90
:104C5000E2863F2CD4823FF2D27D3FA245763F6967
:104C600018266F3F2BF6673F772D613FBE9F5A3F57
:104C70007446543FB22E4E3FD044483F5C8F423F73
:104C8000560E3D3FA2B4370C181E323FF6972D3F0B
:104C900055C1283F9318243F24971F3F083D1B3FD1
:104CA000B003173FAAF11248180A0F3F5F290B3FC4
:104CB0001973079815033FDC6818293F910FFA3ED6
:104CC000F38EF33EA835ED3EE71DE73E772DE13E3E
:104CD0005A64DB3EC6DCD53E696FD03E5F29CB3ED1
:104CE000C217C618101FC13E645DBC3EA2B4B73ED9
:104CF0003333B33E17D9AE3E3199AA3E8273A63EF6
:104D00002575A23E180B919E3E11C79A3E591797E2
:104D100050184E933EA913903E96B28C3EBA6B89C2
:104D20003E143F863EA52C833E5227803E6C787A07
:104D30003E6ABC743ED7346F3EB1E1693EC1A8649F
:104D40003E098A5F3E88855A3E74B5553E97FF50AE
:104D50003E287E4C3EB9FC473EB8AF433EEE7C3F1A
:104D60009010493B3EFE65373ED881333EB29D2FC1
:104D70003EFAED2B3E7958283E2FDD243EE5612199
:104D80003E091B1E3E2CD41A3E87A7173E189514C9
:104D90003EAA82113E728A0E3E71AC0B3EA7E80815
:104DA0003EDD24063E4A7B033EEEEB18E93E24B985
:104DB000FC3DD9CEF73D8FE4F23DB22EEE3D43AD42
:104DC000E93DD42BE53D65AAE03D645DDC3DD04482
:104DD000D83D3D2CD43DA913D03D832FCC3DCC7F75
:104DE000C83DA69BC43D5C20C13DA470BD3D5AF5A5
:104DF000B93D7DAEB63D3333B33DC520B03DE8D9B6
:104E0000AC3D7AC7A93D0BB5A63D0AD7A33D9CC4CE
:104E1000A03D9BE69D3D083D9B3D7593983DE2E995
:104E2000953D4F40933DBC96903D96218E3D71AC93
:104E30008B3DBA6B893D94F6863DDDB5843D257585
:104E4000823D6E34803D48507C3DB537783D211F12
:104E5000743D8E06703DFAED6B3D423E683DAF25D8
:104E6000643DF775603D3FC65C3D637F593DABCF08
:104E7000553DCE88523DF2414F3D16FB4B3D39B476
:104E8000483D5D6D453D8126423D80483F3D7F6AFE
:104E90003C3D7E8C39A4181A363D7DD0333D7CF2E2
:104EA000303D7B142E3D569F2B3D302A293D304C02
:104EB00026A8200B233DE561213DC0EC1E3D1A1EB6
:104EC000022113AD3B22081A6402212BE9410C1A7E
:104ED000C802213A710C1A4B02218B293A243A5903
:104EE0003025DC05DC052B41420CB135A24A04011A
:044EF000B2100000FC
:0400000508000105E9
:00000001FF
